{
  "contractName": "Transaction",
  "abi": [
    {
      "constant": true,
      "inputs": [
        {
          "name": "",
          "type": "uint256"
        }
      ],
      "name": "transactions",
      "outputs": [
        {
          "name": "sender",
          "type": "address"
        },
        {
          "name": "receiver",
          "type": "address"
        },
        {
          "name": "amount",
          "type": "uint256"
        }
      ],
      "payable": false,
      "stateMutability": "view",
      "type": "function",
      "signature": "0x9ace38c2"
    },
    {
      "constant": true,
      "inputs": [],
      "name": "transactionCount",
      "outputs": [
        {
          "name": "",
          "type": "uint256"
        }
      ],
      "payable": false,
      "stateMutability": "view",
      "type": "function",
      "signature": "0xb77bf600"
    },
    {
      "anonymous": false,
      "inputs": [
        {
          "indexed": false,
          "name": "sender",
          "type": "address"
        },
        {
          "indexed": false,
          "name": "receiver",
          "type": "address"
        },
        {
          "indexed": false,
          "name": "amount",
          "type": "uint256"
        }
      ],
      "name": "TransactionCreated",
      "type": "event",
      "signature": "0x878e1a8a7ee638d3050b311026ea6730c31a9bf9c4d0dc6ea2a3922927fabd62"
    },
    {
      "constant": false,
      "inputs": [
        {
          "name": "_receiver",
          "type": "address"
        }
      ],
      "name": "sendFunds",
      "outputs": [],
      "payable": true,
      "stateMutability": "payable",
      "type": "function",
      "signature": "0xcfe52bdd"
    },
    {
      "constant": true,
      "inputs": [
        {
          "name": "_index",
          "type": "uint256"
        }
      ],
      "name": "getTransaction",
      "outputs": [
        {
          "name": "sender",
          "type": "address"
        },
        {
          "name": "receiver",
          "type": "address"
        },
        {
          "name": "amount",
          "type": "uint256"
        }
      ],
      "payable": false,
      "stateMutability": "view",
      "type": "function",
      "signature": "0x33ea3dc8"
    },
    {
      "constant": false,
      "inputs": [
        {
          "name": "_amount",
          "type": "uint256"
        }
      ],
      "name": "withdrawFunds",
      "outputs": [],
      "payable": false,
      "stateMutability": "nonpayable",
      "type": "function",
      "signature": "0x155dd5ee"
    }
  ],
  "bytecode": "0x608060405234801561001057600080fd5b506105f6806100206000396000f3fe60806040526004361061006c5763ffffffff7c0100000000000000000000000000000000000000000000000000000000600035041663155dd5ee811461007157806333ea3dc81461009d5780639ace38c2146100fe578063b77bf60014610128578063cfe52bdd1461014f575b600080fd5b34801561007d57600080fd5b5061009b6004803603602081101561009457600080fd5b5035610182565b005b3480156100a957600080fd5b506100c7600480360360208110156100c057600080fd5b50356102d9565b6040805173ffffffffffffffffffffffffffffffffffffffff94851681529290931660208301528183015290519081900360600190f35b34801561010a57600080fd5b506100c76004803603602081101561012157600080fd5b503561038d565b34801561013457600080fd5b5061013d6103d8565b60408051918252519081900360200190f35b61009b6004803603602081101561016557600080fd5b503573ffffffffffffffffffffffffffffffffffffffff166103de565b600081116101da576040805160e560020a62461bcd02815260206004820152601d60248201527f416d6f756e74206d7573742062652067726561746572207468616e2030000000604482015290519081900360640190fd5b3031811115610233576040805160e560020a62461bcd02815260206004820152601d60248201527f496e73756666696369656e7420636f6e74726163742062616c616e6365000000604482015290519081900360640190fd5b604051600090339083908381818185875af1925050503d8060008114610275576040519150601f19603f3d011682016040523d82523d6000602084013e61027a565b606091505b505090508015156102d5576040805160e560020a62461bcd02815260206004820152601160248201527f5769746864726177616c206661696c6564000000000000000000000000000000604482015290519081900360640190fd5b5050565b600080600060015484101515610339576040805160e560020a62461bcd02815260206004820152601960248201527f496e76616c6964207472616e73616374696f6e20696e64657800000000000000604482015290519081900360640190fd5b6000808581548110151561034957fe5b600091825260209091206003909102018054600182015460029092015473ffffffffffffffffffffffffffffffffffffffff91821698929091169650945092505050565b600080548290811061039b57fe5b600091825260209091206003909102018054600182015460029092015473ffffffffffffffffffffffffffffffffffffffff918216935091169083565b60015481565b60003411610436576040805160e560020a62461bcd02815260206004820152601d60248201527f416d6f756e74206d7573742062652067726561746572207468616e2030000000604482015290519081900360640190fd5b61043e6105aa565b33815273ffffffffffffffffffffffffffffffffffffffff828116602083018181523460408086018281526000805460018181018355828052895160039092027f290decd9548b62a8d60345a988386fc84ba6bc95484008f6362f93160ef3e56381018054938b1673ffffffffffffffffffffffffffffffffffffffff1994851617905596517f290decd9548b62a8d60345a988386fc84ba6bc95484008f6362f93160ef3e5648801805491909a1692169190911790975590517f290decd9548b62a8d60345a988386fc84ba6bc95484008f6362f93160ef3e56590940193909355845485019094559251919280156108fc02929091818181858888f19350505050158015610551573d6000803e3d6000fd5b506040805133815273ffffffffffffffffffffffffffffffffffffffff84166020820152348183015290517f878e1a8a7ee638d3050b311026ea6730c31a9bf9c4d0dc6ea2a3922927fabd629181900360600190a15050565b60408051606081018252600080825260208201819052918101919091529056fea165627a7a723058201d7f58044cbbed4d8b31754774479416fa3d8594913da63fbbe95d38672a0ca10029",
  "source": "pragma solidity ^0.5.0;\n\ncontract Transaction {\n    struct TransactionData {\n        address sender;\n        address receiver;\n        uint256 amount;\n    }\n\n    TransactionData[] public transactions;\n    uint256 public transactionCount;\n\n    event TransactionCreated(address sender, address receiver, uint256 amount);\n\n    // function sendFunds(address _receiver) external payable {\n    //     require(msg.value > 0, \"Amount must be greater than 0\");\n\n    //     TransactionData memory newTransaction;\n    //     newTransaction.sender = msg.sender;\n    //     newTransaction.receiver = _receiver;\n    //     newTransaction.amount = msg.value;\n\n    //     transactions.push(newTransaction);\n    //     transactionCount++;\n\n    //     emit TransactionCreated(msg.sender, _receiver, msg.value);\n    // }\n    function sendFunds(address payable _receiver) external payable {\n        require(msg.value > 0, \"Amount must be greater than 0\");\n\n        TransactionData memory newTransaction;\n        newTransaction.sender = msg.sender;\n        newTransaction.receiver = _receiver;\n        newTransaction.amount = msg.value;\n\n        transactions.push(newTransaction);\n        transactionCount++;\n\n        _receiver.transfer(msg.value); // Transfer the funds to the receiver\n\n        emit TransactionCreated(msg.sender, _receiver, msg.value);\n    }\n\n    function getTransaction(uint256 _index)\n        external\n        view\n        returns (\n            address sender,\n            address receiver,\n            uint256 amount\n        )\n    {\n        require(_index < transactionCount, \"Invalid transaction index\");\n\n        TransactionData storage transaction = transactions[_index];\n        sender = transaction.sender;\n        receiver = transaction.receiver;\n        amount = transaction.amount;\n    }\n\n    function withdrawFunds(uint256 _amount) external {\n        require(_amount > 0, \"Amount must be greater than 0\");\n        require(address(this).balance >= _amount, \"Insufficient contract balance\");\n        (bool success, ) = msg.sender.call.value(_amount)(\"\");\n        require(success, \"Withdrawal failed\");\n    }\n}\n",
  "sourcePath": "/home/wwy109u/eth-transaction/contracts/Transaction.sol",
  "compiler": {
    "name": "solc",
    "version": "0.5.0+commit.1d4f565a.Emscripten.clang"
  },
  "schemaVersion": "3.0.1",
  "updatedAt": "2023-06-02T10:39:11.902Z",
  "devdoc": {
    "methods": {}
  },
  "userdoc": {
    "methods": {}
  }
}